:100000000C942A000C9447000C9447000C94470071
:100010000C9447000C9447000C9447000C94470044
:100020000C9447000C9447000C9447000C94470034
:100030000C9447000C9447000C9447000C94470024
:100040000C9447000C9447000C9447000C94470014
:100050000C94470011241FBECFE5D8E0DEBFCDBF12
:1000600010E0A0E6B0E0E4EBF8E002C005900D92ED
:10007000A23EB107D9F720E0A2EEB0E001C01D9288
:10008000A23EB207E1F70E94E6000C9458040C94DB
:10009000000088BB85B38C7F85BBAA9A85E08A95D2
:1000A000F1F70000AA988FED9EE20197F1F700C0EA
:1000B0000000089588BBA99885B3856085BB85E05D
:1000C0008A95F1F70000AA988FE99FE00197F1F770
:1000D00000C00000089584B3876084BB8FEF87BBA6
:1000E0002FEF89EF90E0215080409040E1F700C071
:1000F000000088E30E9449008CE00E94490086E0ED
:100100000E94490081E00E94490080E80E94490065
:100110000895CF93DF93EC018881882331F02196F5
:100120000E945A0089918111FBCFDF91CF910895F0
:10013000CF93DF93EA01813031F4862F8F7080688E
:100140000E94490007C0823029F4862F8F70806C8E
:100150000E944900CE010E948900DF91CF9108954D
:1001600081E00E9449000895D09887E886B980E42C
:1001700087B908958770806487B9369A349BFECF1B
:10018000349A8FE99FE00197F1F700C0000084B135
:1001900095B10895D19887E886B908950E94B00076
:1001A0002FEF80E792E0215080409040E1F700C0BF
:1001B000000040E650E060E081E00E94980040E7E7
:1001C00050E060E082E00E9498000895CF92DF92B4
:1001D000EF92FF92CF93DF93CDB7DEB72A970FB69A
:1001E000F894DEBF0FBECDBF8A98A59A8D988C9AE1
:1001F000A39AA49A8E988F9A0E946B000E94B400D2
:100200000E94B0004CE750E062E081E00E9498005C
:100210004AE850E065E082E00E9498002FEF85EA0E
:100220009EE0215080409040E1F700C000000E9415
:10023000B000859B0BC0AFEFB0E722E0A150B0400B
:100240002040E1F700C00000AD9A0AC08FEF90E7B0
:10025000A2E081509040A040E1F700C00000AD98BE
:1002600080E00E94BA00BC01990F880B990B0E9494
:10027000360326EF38E24CE950E40E94C7032AE92E
:1002800039E949E95EE30E94200220E030E04FE7CF
:1002900053E40E948C022AE037ED43E25DE30E94C2
:1002A0001F022CEB34E743E15CE30E948C026B01FC
:1002B0007C01BFEF23ED80E3B15020408040E1F7A7
:1002C00000C00000FE0131968AE0DF011D928A9590
:1002D000E9F720E030EA45EC54E4C701B6010E949A
:1002E000C203882304F1829B03C00E94CE0017C082
:1002F0000E94B000BFEF20E782E0B1502040804074
:10030000E1F700C0000041E950E060E081E00E94B8
:1003100098004FE950E060E082E00E949800AB9ABC
:10032000AC9A949849C020E030E048EC53E4C7010F
:10033000B6010E94C203882304F1829B03C00E947D
:10034000CE0017C00E94B0009FEFA0E7B2E091502E
:10035000A040B040E1F700C000004CEA50E060E08F
:1003600081E00E94980048EB50E060E082E00E944B
:100370009800AC98AB9A94981FC0829B03C00E94CF
:10038000CE0017C00E94B0002FEF80E792E021500E
:1003900080409040E1F700C0000044EC50E060E095
:1003A00081E00E94980048EB50E060E082E00E940B
:1003B0009800AB98949AAC98C99B16C00E94B00064
:1003C000AB98AC989498979A40ED50E060E081E04B
:1003D0000E949800AFEFB1EE24E0A150B040204061
:1003E000E1F700C0000001C097980E94CA008FEF9B
:1003F00093EDA0E381509040A040E1F700C00000E1
:1004000081E00E94BA00BC01990F880B990B0E94F1
:10041000360320E030E040EA51E40E948C020E9462
:10042000FE02CB012A960FB6F894DEBF0FBECDBFF9
:10043000DF91CF91FF90EF90DF90CF9008955058CB
:10044000BB27AA270E9437020C9488030E947A03D4
:1004500038F00E94810320F039F49F3F19F426F40C
:100460000C9477030EF4E095E7FB0C947103E92FED
:100470000E94990358F3BA17620773078407950718
:1004800020F079F4A6F50C94BB030EF4E0950B2E46
:10049000BA2FA02D0B01B90190010C01CA01A001D6
:1004A0001124FF27591B99F0593F50F4503E68F131
:1004B0001A16F040A22F232F342F4427585FF3CF72
:1004C000469537952795A795F0405395C9F77EF443
:1004D0001F16BA0B620B730B840BBAF09150A1F08C
:1004E000FF0FBB1F661F771F881FC2F70EC0BA0F12
:1004F000621F731F841F48F4879577956795B7959A
:10050000F7959E3F08F0B0CF9395880F08F0992794
:10051000EE0F9795879508950E94A0020C9488038A
:100520000E94810358F00E947A0340F029F45F3F53
:1005300029F00C94710351110C94BC030C947703B3
:100540000E94990368F39923B1F3552391F3951B06
:10055000550BBB27AA2762177307840738F09F5FE4
:100560005F4F220F331F441FAA1FA9F335D00E2E51
:100570003AF0E0E832D091505040E695001CCAF7BE
:100580002BD0FE2F29D0660F771F881FBB1F261781
:1005900037074807AB07B0E809F0BB0B802DBF0158
:1005A000FF2793585F4F3AF09E3F510578F00C9427
:1005B00071030C94BC035F3FE4F3983ED4F386953B
:1005C00077956795B795F7959F5FC9F7880F911D48
:1005D0009695879597F90895E1E0660F771F881F34
:1005E000BB1F621773078407BA0720F0621B730BE7
:1005F000840BBA0BEE1F88F7E09508950E9405035F
:100600006894B1110C94BC0308950E94A10388F072
:100610009F5798F0B92F9927B751B0F0E1F0660FC6
:10062000771F881F991F1AF0BA95C9F714C0B13007
:1006300091F00E94BB03B1E008950C94BB03672FB7
:10064000782F8827B85F39F0B93FCCF38695779536
:100650006795B395D9F73EF490958095709561951F
:100660007F4F8F4F9F4F0895E89409C097FB3EF44A
:1006700090958095709561957F4F8F4F9F4F9923EF
:10068000A9F0F92F96E9BB279395F695879577956D
:100690006795B795F111F8CFFAF4BB0F11F460FF2D
:1006A0001BC06F5F7F4F8F4F9F4F16C0882311F085
:1006B00096E911C0772321F09EE8872F762F05C099
:1006C000662371F096E8862F70E060E02AF09A9534
:1006D000660F771F881FDAF7880F9695879597F929
:1006E000089597F99F6780E870E060E008959FEFB4
:1006F00080EC089500240A941616170618060906B9
:10070000089500240A941216130614060506089587
:10071000092E0394000C11F4882352F0BB0F40F40F
:10072000BF2B11F460FF04C06F5F7F4F8F4F9F4F4F
:10073000089557FD9058440F551F59F05F3F71F0D1
:100740004795880F97FB991F61F09F3F79F0879538
:100750000895121613061406551FF2CF4695F1DFC1
:1007600008C0161617061806991FF1CF8695710551
:10077000610508940895E894BB2766277727CB0185
:1007800097F908950E94340408F48FEF08950E94A9
:10079000DA030C9488030E947A0338F00E948103E4
:1007A00020F0952311F00C9471030C94770311241D
:1007B0000C94BC030E94990370F3959FC1F3950FAD
:1007C00050E0551F629FF001729FBB27F00DB11DD5
:1007D000639FAA27F00DB11DAA1F649F6627B00D65
:1007E000A11D661F829F2227B00DA11D621F739F4E
:1007F000B00DA11D621F839FA00D611D221F749F5C
:100800003327A00D611D231F849F600D211D822FA2
:10081000762F6A2F11249F5750409AF0F1F08823C9
:100820004AF0EE0FFF1FBB1F661F771F881F9150F6
:100830005040A9F79E3F510580F00C9471030C9431
:10084000BC035F3FE4F3983ED4F3869577956795B4
:10085000B795F795E7959F5FC1F7FE2B880F911D20
:100860009695879597F90895990F0008550FAA0B4B
:10087000E0E8FEEF16161706E807F907C0F01216B3
:100880001306E407F50798F0621B730B840B950BB6
:1008900039F40A2661F0232B242B252B21F408950B
:1008A0000A2609F4A140A6958FEF811D811D0895A8
:0408B000F894FFCFEA
:1008B40020206C6971756964206C6576656C200014
:1008C400202020206973206869676800534D4152D5
:1008D400542042494F204741530053595354454DE6
:1008E400002020202042696F67617320676F002019
:1008F400202020206F7574736964650020202020F7
:100904002042696F676173002020202020696E20D7
:10091400757365002020202020204C5067617300EF
:100924002A2A2A20476173206C65616B202A2A2AAF
:020934000000C1
:00000001FF
